:101302000B25C0F9A4B0999282F88090BF0B574088
:10131200792430191202780010BF016400016200C2
:10132200015300016D00016C00016A05025507E9D5
:1013320001540C01631C0D30001F1C1F1E1F1E1FB9
:101342001F1E1F1E1F0D44001F1D1F1E1F1E1F1FBD
:101352001E1F1E1F023F000002230000023D00006C
:0B136200016B0002510000022100009E
:041482007F147E0055
:10148600EF1FAC0670011E4C600A7D027CEFDCFE8D
:04149600DDFC80EC0D
:01149A00222F
:10146800D2B7C2B77FF7DFFED2B77F20DFFEA2B7C1
:09147800E433FE7FF7DFFEAF064E
:011481002248
:1014E400C2B77E04DEFEEF24FF92B77E18DEFED282
:0114F400B740
:0114F50022D4
:1014B400C2B77F02DFFED2B77F02DFFEA2B7E433FA
:0714C400FE7F18DFFEAF06FA
:0114CB0022FE
:02149B00AD079B
:10149D00E4FC7401A804088002C333D8FC5DFF127C
:0614AD0014E40CBC08EC85
:0114B3002216
:10144B00E4FDFC1214B4EF600D7401A804088002D3
:0C145B00C333D8FC42050CBC08E9AF0507
:011467002262
:0D14F6001214687FCC12149B7F4402149BDB
:1013F8001214687FCC12149B7FBE12149B12144BDC
:10140800AB0712144BEFFEEBFFFDAC06EC1202111A
:0A141800E4FBFA7980783D0201063A
:1014CC00538E7F5389F0438901758A18758CFCC241
:0814DC008DD28CD2A9D2AF22FF
:03000B00020BDB0A
:100BDB00C0E0C0F0C083C082C0D075D000C000C0E0
:0D0BEB0001C002C003C004C005C006C00761
:100BF800758A18758CFC0522E52270020521E569C5
:100C08006404705AE56B640170540552E552700231
:100C18000551640A4551700E053EE53E7002053DDA
:100C2800755100755200E53E6464453D700E05241B
:100C3800E52470020523753D00753E00E524643CFB
:100C48004523700E0540E5407002053F7523007589
:100C58002400E540643C453F7004F53FF540E5223B
:100C6800B4E818E521B4031305531213F88F688EFE
:100C7800678D668C65752100752200E553B43C05C7
:100C88000562755300E562B43C050564756200E5CC
:100C980064B41805056375640020030F7430255487
:100CA800F8E6FFE563D39F4014800D74442554F89B
:100CB800E6FFE563D39F40057563010554E554D30A
:100CC800940C400B7554010556E55670020555D332
:100CD800E5569402E555940840067555077556E49F
:100CE800D007D006D005D004D003D002D001D00060
:0B0CF800D0D0D082D083D0F0D0E0320A
:10142200E5565403700EAE55AF56FC7D641202CBE6
:10143200ED4C700FAE55AF567C017D901202CBED94
:091442004C7003D20322C2032204
:0F129300E56C75F00A842425F8E6FD7C007F05E4
:1012A200EF14B40800504C9012B775F003A4C58334
:1012B20025F0C583730212CF0212D40212D9021290
:1012C200DE0212E30212E80212ED0212F27580FE51
:1012D20080217580FD801C7580FB80177580F780EA
:1012E200127580EF800D7580DF80087580BF8003E6
:1012F20075807F8DA07F017E0012148675A0FF226B
:10064200E56EB40114E541D39400400D7DFF7C00BA
:100652007F011212A215418041E56EB4011DE542EF
:10066200D394004016E56475F00A842425F8E6FD6B
:100672007C007F011212A21542801FE56EB40108B0
:100682007541807542808012E56475F00A842425E4
:10069200F8E6FD7C007F011212A2E56EB40114E5BA
:1006A20041D39400400D7DFF7C007F021212A215FF
:1006B200418045E56EB4011FE542D394004018E540
:1006C2006475F00A84742525F0F8E6FD7C007F024B
:1006D2001212A215428021E56EB40108754180759F
:1006E20042808014E56475F00A84742525F0F8E6EA
:1006F200FD7C007F021212A2E52FFD7C007F031217
:1007020012A2E56EB40214E541D39400400D7DFFC0
:100712007C007F041212A215418041E56EB4021DD5
:10072200E542D394004016E56275F00A842425F868
:10073200E6FD7C007F041212A21542801FE56EB412
:1007420002087541807542808012E56275F00A8464
:100752002425F8E6FD7C007F041212A2E56EB402A5
:1007620010E541D3940040097DFF12129E1541808D
:1007720037E56EB40218E542D394004011E5627584
:10078200F00A84742525F012129B1542801AE56E38
:10079200B40208754180754280800DE56275F00AE9
:1007A20084742525F012129BE52FFD7C007F061232
:1007B20012A2E56EB40314E541D39400400D7DFF0F
:1007C2007C007F071212A215418041E56EB4031D21
:1007D200E542D394004016E55375F00A842425F8C7
:1007E200E6FD7C007F071212A21542801FE56EB45F
:1007F20003087541807542808012E55375F00A84C2
:100802002425F8E6FD7C007F071212A2E56EB403F0
:1008120013E541D39400400C7DFF7C007F08121247
:10082200A2154122E56EB4031EE542D3940040179F
:10083200E55375F00A84742525F0F8E6FD7C007F07
:10084200081212A2154222E56EB4030775418075A3
:10085200428022E55375F00A84742525F0F8E6FDFE
:080862007C007F081212A222A3
:100D030020901BE56970177F14FE12148620900E45
:100D13003090FD121482756901756E01C28CE5690C
:100D230064016003020E0C20901B7F14FE121486D4
:100D33002090123090FD121482056EE56ED3940359
:100D43004003756E01E56E640170342091187F14C1
:100D5300FE12148620910F3091FD121482E5647007
:100D630003756418156420921612148220921030B1
:100D730092FD1214820564E564B41803E4F564E596
:100D83006E640270342091187F14FE121486209131
:100D93000F3091FD121482E562700375623C156297
:100DA3002092161214822092103092FD12148205A2
:100DB30062E562B43C03E4F562E56E6403703420DB
:100DC30091187F14FE12148620910F3091FD121496
:100DD30082E553700375533C155320921612148207
:100DE3002092103092FD1214820553E553B43C0354
:100DF300E4F55320931312148220930D3093FD12C4
:0A0E03001482E4F56EF569D28C222A
:10086A002002097D8C7C007F011212A23002097DD0
:10087A00867C007F011212A2E56FB40114E541D310
:10088A009400400D7DFF7C007F031212A215418067
:10089A0041E56FB4011DE542D394004016E56D753C
:1008AA00F00A842425F8E6FD7C007F031212A215C3
:1008BA0042801FE56FB4010875418075428080123D
:1008CA00E56D75F00A842425F8E6FD7C007F0312A5
:1008DA0012A2E56FB40114E541D39400400D7DFFE7
:1008EA007C007F041212A215418045E56FB4011FF6
:1008FA00E542D394004018E56D75F00A84745725D3
:10090A00F0F8E6FD7C007F041212A215428021E570
:10091A006FB401087541807542808014E56D75F0E9
:10092A000A84745725F0F8E6FD7C007F041212A2AF
:10093A00E56FB40210E541D3940040097DFF12121D
:10094A009E15418023E56FB4020EE542D394004020
:10095A000712129315428010E56FB40208754180A0
:10096A007542808003121293E56FB40214E541D3F5
:10097A009400400D7DFF7C007F061212A215418073
:10098A0045E56FB4021FE542D394004018E56C7543
:10099A00F00A84745725F0F8E6FD7C007F061212EF
:1009AA00A215428021E56FB4020875418075428024
:1009BA008014E56C75F00A84745725F0F8E6FD7C1E
:1009CA00007F061212A2E56FB40314E541D3940026
:1009DA00400D7DFF7C007F071212A215418041E580
:1009EA006FB4031DE542D394004016E56A75F00A18
:1009FA00842425F8E6FD7C007F071212A2154280A6
:100A0A001FE56FB403087541807542808012E56A5C
:100A1A0075F00A842425F8E6FD7C007F071212A2ED
:100A2A00E56FB40313E541D39400400C7DFF7C00CD
:100A3A007F081212A2154122E56FB4031EE542D3C4
:100A4A0094004017E56A75F00A84745725F0F8E6B1
:100A5A00FD7C007F081212A2154222E56FB403073B
:100A6A0075418075428022E56A75F00A84745725BB
:0C0A7A00F0F8E6FD7C007F081212A222BA
:100E0D00E56970152091127F14FE12148620910948
:100E1D003091FD121482756902E569640260030266
:100E2D000F162090227F14FE1214862090193090F8
:100E3D00FD121482056FE56FB40402B202E56FD3A3
:100E4D0094034003E4F56FE56F640170342091184D
:100E5D007F14FE12148620910F3091FD121482E53D
:100E6D006D7003756D18156D2092161214822092F7
:100E7D00103092FD121482056DE56DB41803E4F582
:100E8D006DE56F640270342091187F14FE12148684
:100E9D0020910F3091FD121482E56C7003756C3C3E
:100EAD00156C2092161214822092103092FD12149D
:100EBD0082056CE56CB43C03E4F56CE56F6403707E
:100ECD00342091187F14FE12148620910F3091FD5D
:100EDD00121482E56A7003756A3C156A2092161227
:100EED0014822092103092FD121482056AE56AB4C4
:100EFD003C03E4F56A20931112148220930B309376
:0A0F0D00FD121482E4F56FF569226D
:10101400E564656D60030210EFE562656C600302D0
:1010240010EFE553656A60030210EF20020302101B
:10103400EFE56960030210EF2090030210DE2091B7
:10104400030210DE2092030210DE2093030210DE5E
:10105400B2957D887C007F011212A2B2957D477CF7
:10106400007F021212A2B295E56D75F00A84242560
:10107400F8E6FD7C007F031212A2B295E56D75F0CF
:101084000A84745725F0F8E6FD7C007F041212A24E
:10109400B295121293B295E56C75F00A84745725D3
:1010A400F0F8E6FD7C007F061212A2B295E56A759F
:1010B400F00A842425F8E6FD7C007F071212A2B210
:1010C40095E56A75F00A84742525F0F8E6FD7C0040
:1010D4007F081212A2B29502103C3090FD3091FAB2
:0C10E4003092F73093F4121482D295225F
:10032E00E543B40114E541D39400400D7DFF7C00FC
:10033E007F011212A21541804EE54364017023E540
:10034E0042D39400401CAE55AF567C037DE812029A
:10035E00CB74252FF8E6FD7C007F011212A2154208
:10036E008025E543B401087541807542808018AE42
:10037E0055AF567C037DE81202CB74252FF8E6FDAF
:10038E007C007F011212A2E543B40114E541D3941F
:10039E0000400D7DFF7C007F021212A21541805C91
:1003AE00E5436401702AE542D394004023AE55AF75
:1003BE00567C007D641202CB7C007D0A1202CB7447
:1003CE00252DF8E6FD7C007F021212A21542802C2C
:1003DE00E543B40108754180754280801FAE55AF6C
:1003EE00567C007D641202CB7C007D0A1202CB7417
:1003FE00252DF8E6FD7C007F021212A2E543B40122
:10040E0014E541D39400400D7DFF7C007F03121252
:10041E00A215418068E54364017030E542D3940033
:10042E004029AE55AF567C007D641202CB7E007F14
:10043E000ACFCDCFCECCCE1202CB74252FF8E6FD4F
:10044E007C007F031212A215428032E543B40108EC
:10045E007541807542808025AE55AF567C007D6417
:10046E001202CB7E007F0ACFCDCFCECCCE1202CBE6
:10047E0074252FF8E6FD7C007F031212A2E543B42B
:10048E000114E541D39400400D7DFF7C007F0412E2
:10049E0012A21541804EE54364017023E542D394C8
:1004AE0000401CAE55AF567C007D0A1202CB74572D
:1004BE002DF8E6FD7C007F041212A215428025E580
:1004CE0043B401087541807542808018AE55AF5611
:1004DE007C007D0A1202CB74572DF8E6FD7C007F5E
:1004EE00041212A2E543B40210E541D39400400970
:1004FE007DFF12129E15418027E543B40210E5429E
:10050E00D394004009E55412129515428012E5432A
:10051E00B402087541807542808005E5541212952B
:10052E00E543B40214E541D39400400D7DFF7C00F9
:10053E007F061212A215418045E543B4021FE54223
:10054E00D394004018E55475F00A84745725F0F8DA
:10055E00E6FD7C007F061212A215428021E543B40F
:10056E0002087541807542808014E55475F00A8446
:10057E00745725F0F8E6FD7C007F061212A2E543C3
:10058E00B40314E541D39400400D7DFF7C007F073A
:10059E001212A215418041E543B4031DE542D394E6
:1005AE00004016E56375F00A842425F8E6FD7C000C
:1005BE007F071212A21542801FE543B4030875414E
:1005CE00807542808012E56375F00A842425F8E672
:1005DE00FD7C007F071212A2E543B40313E541D35D
:1005EE009400400C7DFF7C007F081212A215412260
:1005FE00E543B4031EE542D394004017E56375F05E
:10060E000A84745725F0F8E6FD7C007F081212A2CA
:10061E00154222E543B4030775418075428022E5F9
:10062E006375F00A84745725F0F8E6FD7C007F08A8
:04063E001212A222D0
:100A8600E56970152092127F14FE121486209209D1
:100A96003092FD121482756903E5696403600302EE
:100AA6000BDA20901B7F14FE1214862090123090D1
:100AB600FD1214820543E543D394034003754301B5
:100AC600E5436401704F2091277F14FE121486209F
:100AD600911E3091FD121482E556B4E40BE555B42F
:100AE60007067555077556E5E556155670021555F0
:100AF60020922212148220921C3092FD121482053A
:100B060056E55670020555B4030BE555B40806754F
:100B16005508755602E543640270352091197F1415
:100B2600FE1214862091103091FD121482E554B401
:100B3600010375540D15542092161214822092103A
:100B46003092FD1214820554E554B40D0375540118
:100B5600E5436403706A2091307F14FE12148620E8
:100B660091273091FD121482E563D3940150182029
:100B7600030974302554F8E604F563300309744418
:100B86002554F8E604F56315632092341214822086
:100B9600922E3092FD1214820563200310743025C4
:100BA60054F8E6FFE563D39F4003756301300310F5
:100BB60074442554F8E6FFE563D39F40037563014B
:100BC60020931112148220930B3093FD121482E4A9
:050BD600F543F5692262
:1010F000AE3FAF407C007D0A1202CB74252FF8E68C
:10110000FD7C007F011212A2AE3FAF407C007D0A41
:101110001202CB74252DF8E6FD7C007F021212A28C
:10112000E52FFD7C007F031212A2AE23AF247C00CA
:101130007D0A1202CB74252FF8E6FD7C007F041295
:1011400012A2AE23AF247C007D0A1202CB74572D6D
:1011500012129BE52FFD7C007F061212A2AE3DAF5E
:101160003E7C007D0A1202CB74252FF8E6FD7C0040
:101170007F071212A2AE3DAF3E7C007D0A1202CB69
:0D11800074252DF8E6FD7C007F080212A208
:10121900E56970152094127F14FE12148620940932
:101229003094FD121482756904E5696404705A20CA
:1012390090237F14FE12148620901A3090FD121408
:1012490082E56B6003B40205756B018008E56BB438
:101259000103756B0220911F12148220911930919C
:10126900FD121482E4F53DF53EF523F524F53FF52D
:1012790040F56BF551F55220930F12148220930912
:0A1289003093FD121482E4F569228F
:100F17001214F6AF68AE67AD66AC6512024A8F0869
:100F2700AC08E4120216A804A905AA06AB07AF6825
:100F3700AE67AD66AC65120011E4FBFA79C878427A
:100F470012010612024A8F09AC08E4120216A8041D
:100F5700A905AA06AB07AF68AE67AD66AC65120018
:100F670011E4FBFA79C87842120106C004C005C033
:100F770006C007AC09E4120216A804A905AA06AB25
:100F870007D007D006D005D004120011E4FBFA7988
:100F9700C8784212010612024AAB07E50875F00A43
:100FA700842425F8E6FD7C007F021212A2E508756D
:100FB700F00A84745725F0F8E6FD7C007F031212CF
:100FC700A2E50975F00A842425F8E6FD7C007F0474
:100FD7001212A2E50975F00A84742525F012129BF6
:100FE700EB75F00A842425F8E6FD7C007F061212D3
:100FF700A2EB75F00A84742525F0F8E6FD7C007FE6
:0D100700071212A27DA77C007F080212A232
:1013C700E56970152093127F14FE12148620930985
:1013D7003093FD121482756905E569B405122093EF
:1013E7000F1214822093093093FD121482E4F569D9
:0113F70022D3
:10136E00E4F56EC200F56FC201F543C202F5697570
:10137E0041807542801214CC121422E5696003B4C8
:10138E000103120642120D03E569B4020312086A44
:10139E00120E0D121014E569B4030312032E120A75
:1013AE0086E569B404031210F0121219E569B4054A
:0913BE0003120F171213C780BFC0
:10000E000202B6E86480F8E933E83360110460F068
:10001E00ED33EC337009E8FCE9FDEAFEEBFF220458
:10002E0060DED3EB9FEA9EE99DE8C2E78CF0C2F753
:10003E0095F0400CE8CCF8E9CDF9EACEFAEBCFFB1F
:10004E0012028185D0F05804700320D5B3E80470F5
:10005E00075002B2D50202C092D5EC0460F7E4CC90
:10006E00C0E0C398F8603B94186008400DD0E0FBE8
:10007E00020298E4FBFAC9FC8028E830E406E4C9E1
:10008E00FBE4CAFCE830E305E4C9CACBFCE854073C
:10009E006010F8C3E913F9EA13FAEB13FBEC13FC47
:1000AE00D8F130F52FC3E49CFCEF9BFFEE9AFEEDEA
:1000BE0099FDD0E0FBEF4E4D4C701222DB03020295
:1000CE00BDEC2CFCEF33FFEE33FEED33FDED30E7F0
:1000DE00EB020298EF2BFFEE3AFEED39FDD0E0FB7E
:1000EE0050130BBB00030202C0ED13FDEE13FEEF27
:0800FE0013FFEC13FC02029851
:10010600EC4D6011E8497017ED33EC3304600DE4F3
:10011600FCFFFEFD22E933E8330470F80202B61252
:10012600028158046009E4CC248150062850090253
:1001360002C02840030202BDC0E0EB4A7044B98009
:1001460006D0E0FB0202ACEF4E701CBD8008EBFF50
:10015600EAFEE9FD80EBE98DF0A4FEE5F00201EF91
:10016600E9CDF9EAFEEBFFEF89F0A4FCE5F0CE89D4
:10017600F0A42EFFE435F0CD89F0A42DFEE435F091
:100186008067EF4E7005BD80D780C3EF8BF0A4ACBF
:10019600F0EE8BF0A42CFCE435F0F8EF8AF0A42CFA
:1001A600E5F038FCE433CB8DF0A42CFCE5F03BF80D
:1001B600EE8AF0A42CFCE5F038F8E433CF89F0A4FD
:1001C6002CFCE5F038CF3400CE89F0A42FFFE5F003
:1001D6003EFEE433C98DF0A42EFEE5F039CD8AF05B
:1001E600A42FFFE5F03EFEE43DFD33D0E0FB5007D3
:1001F6000BBB000F0202C0EC2CFCEF33FFEE33FE0C
:06020600ED33FD02029839
:10020C0075F020800E75F010800575F0087D007E6D
:10021C00007F003392D530D503120320EC3340100D
:10022C00EF33FFEE33FEED33FDEC33FCD5F0ED2276
:0E023C00E5F0247EA2D513CC92E7CDCEFF22B2
:10024A00EDD2E7CD33EC3392D524814006E4FFFEAC
:10025A00FDFC22FCE4CFCECDCC24E0501174FF800B
:10026A00EDC3CC13CCCD13CDCE13CECF13CF0470A8
:07027A00F030D5DE02032085
:10028100E9D2E7C933E833F892D5EDD2E7CD33ECC3
:0702910033FC5002B2D5223C
:10029800EC30E7100FBF000C0EBE00080DBD0004C7
:1002A8000BEB6014A2D5EB13FCED92E7FD2274FF73
:1002B800FCFDFEFF22E480F8A2D574FF13FC7D80CC
:0302C800E480EFE0
:0300000002118D5D
:0C118D00787FE4F6D8FD75816F0211D464
:1002CB00BC000BBE0029EF8DF084FFADF022E4CC17
:1002DB00F875F008EF2FFFEE33FEEC33FCEE9DECE0
:1002EB00984005FCEE9DFE0FD5F0E9E4CEFD22ED26
:1002FB00F8F5F0EE8420D21CFEADF075F008EF2F70
:10030B00FFED33FD4007985006D5F0F222C398FD60
:05031B000FD5F0EA22FD
:0E032000C3E49FFFE49EFEE49DFDE49CFC22EE
:1011990002136EE493A3F8E493A34003F68001F2EB
:1011A90008DFF48029E493A3F85407240CC8C33357
:1011B900C4540F4420C8834004F456800146F6DF26
:1011C900E4800B0102040810204080901302E47EA1
:1011D900019360BCA3FF543F30E509541FFEE4931B
:1011E900A360010ECF54C025E060A840B8E493A3E2
:1011F900FAE493A3F8E493A3C8C582C8CAC583CA0D
:10120900F0A3C8C582C8CAC583CADFE9DEE780BEC4
:01136D00007F
:00000001FF
